{"abi":[{"type":"constructor","inputs":[{"name":"_greeting","type":"string","internalType":"string"}],"stateMutability":"nonpayable"},{"type":"function","name":"greet","inputs":[],"outputs":[{"name":"","type":"string","internalType":"string"}],"stateMutability":"view"},{"type":"function","name":"updateGreeting","inputs":[{"name":"_greeting","type":"string","internalType":"string"}],"outputs":[],"stateMutability":"nonpayable"},{"type":"function","name":"version","inputs":[],"outputs":[{"name":"","type":"uint256","internalType":"uint256"}],"stateMutability":"view"}],"bytecode":{"object":"0x6080604052600060015534801561001557600080fd5b506040516106833803806106838339810160408190526100349161005d565b600061004082826101b1565b5050610270565b634e487b7160e01b600052604160045260246000fd5b6000602080838503121561007057600080fd5b82516001600160401b038082111561008757600080fd5b818501915085601f83011261009b57600080fd5b8151818111156100ad576100ad610047565b604051601f8201601f19908116603f011681019083821181831017156100d5576100d5610047565b8160405282815288868487010111156100ed57600080fd5b600093505b8284101561010f57848401860151818501870152928501926100f2565b600086848301015280965050505050505092915050565b600181811c9082168061013a57607f821691505b60208210810361015a57634e487b7160e01b600052602260045260246000fd5b50919050565b601f8211156101ac576000816000526020600020601f850160051c810160208610156101895750805b601f850160051c820191505b818110156101a857828155600101610195565b5050505b505050565b81516001600160401b038111156101ca576101ca610047565b6101de816101d88454610126565b84610160565b602080601f83116001811461021357600084156101fb5750858301515b600019600386901b1c1916600185901b1785556101a8565b600085815260208120601f198616915b8281101561024257888601518255948401946001909101908401610223565b50858210156102605787850151600019600388901b60f8161c191681555b5050505050600190811b01905550565b6104048061027f6000396000f3fe608060405234801561001057600080fd5b50600436106100415760003560e01c80632867cc441461004657806354fd4d501461005b578063cfae321714610077575b600080fd5b61005961005436600461015c565b61008c565b005b61006460015481565b6040519081526020015b60405180910390f35b61007f6100b4565b60405161006e919061020d565b600180600082825461009e919061025c565b90915550600090506100b0828261030e565b5050565b6060600080546100c390610283565b80601f01602080910402602001604051908101604052809291908181526020018280546100ef90610283565b801561013c5780601f106101115761010080835404028352916020019161013c565b820191906000526020600020905b81548152906001019060200180831161011f57829003601f168201915b5050505050905090565b634e487b7160e01b600052604160045260246000fd5b60006020828403121561016e57600080fd5b813567ffffffffffffffff8082111561018657600080fd5b818401915084601f83011261019a57600080fd5b8135818111156101ac576101ac610146565b604051601f8201601f19908116603f011681019083821181831017156101d4576101d4610146565b816040528281528760208487010111156101ed57600080fd5b826020860160208301376000928101602001929092525095945050505050565b60006020808352835180602085015260005b8181101561023b5785810183015185820160400152820161021f565b506000604082860101526040601f19601f8301168501019250505092915050565b8082018082111561027d57634e487b7160e01b600052601160045260246000fd5b92915050565b600181811c9082168061029757607f821691505b6020821081036102b757634e487b7160e01b600052602260045260246000fd5b50919050565b601f821115610309576000816000526020600020601f850160051c810160208610156102e65750805b601f850160051c820191505b81811015610305578281556001016102f2565b5050505b505050565b815167ffffffffffffffff81111561032857610328610146565b61033c816103368454610283565b846102bd565b602080601f83116001811461037157600084156103595750858301515b600019600386901b1c1916600185901b178555610305565b600085815260208120601f198616915b828110156103a057888601518255948401946001909101908401610381565b50858210156103be5787850151600019600388901b60f8161c191681555b5050505050600190811b0190555056fea26469706673582212201ed1ae957dfa2a950505efc156abdc4db133e9139f5eca96e24c16d31e39777264736f6c63430008170033","linkReferences":{}},"methodIdentifiers":{"greet()":"cfae3217","updateGreeting(string)":"2867cc44","version()":"54fd4d50"},"id":22}